{
  "_format": "hh-sol-artifact-1",
  "contractName": "Market",
  "sourceName": "contracts/Market.sol",
  "abi": [
    {
      "inputs": [
        {
          "internalType": "string",
          "name": "name",
          "type": "string"
        },
        {
          "internalType": "string",
          "name": "symbol",
          "type": "string"
        }
      ],
      "stateMutability": "nonpayable",
      "type": "constructor"
    },
    {
      "anonymous": false,
      "inputs": [
        {
          "indexed": true,
          "internalType": "address",
          "name": "owner",
          "type": "address"
        },
        {
          "indexed": true,
          "internalType": "address",
          "name": "approved",
          "type": "address"
        },
        {
          "indexed": true,
          "internalType": "uint256",
          "name": "tokenId",
          "type": "uint256"
        }
      ],
      "name": "Approval",
      "type": "event"
    },
    {
      "anonymous": false,
      "inputs": [
        {
          "indexed": true,
          "internalType": "address",
          "name": "owner",
          "type": "address"
        },
        {
          "indexed": true,
          "internalType": "address",
          "name": "operator",
          "type": "address"
        },
        {
          "indexed": false,
          "internalType": "bool",
          "name": "approved",
          "type": "bool"
        }
      ],
      "name": "ApprovalForAll",
      "type": "event"
    },
    {
      "anonymous": false,
      "inputs": [
        {
          "indexed": true,
          "internalType": "address",
          "name": "from",
          "type": "address"
        },
        {
          "indexed": true,
          "internalType": "address",
          "name": "to",
          "type": "address"
        },
        {
          "indexed": true,
          "internalType": "uint256",
          "name": "tokenId",
          "type": "uint256"
        }
      ],
      "name": "Transfer",
      "type": "event"
    },
    {
      "inputs": [
        {
          "internalType": "bytes32",
          "name": "_title",
          "type": "bytes32"
        },
        {
          "internalType": "bytes32",
          "name": "_description",
          "type": "bytes32"
        },
        {
          "internalType": "uint256",
          "name": "_price",
          "type": "uint256"
        },
        {
          "internalType": "string",
          "name": "_image",
          "type": "string"
        }
      ],
      "name": "Mint",
      "outputs": [],
      "stateMutability": "nonpayable",
      "type": "function"
    },
    {
      "inputs": [
        {
          "internalType": "address",
          "name": "to",
          "type": "address"
        },
        {
          "internalType": "uint256",
          "name": "tokenId",
          "type": "uint256"
        }
      ],
      "name": "approve",
      "outputs": [],
      "stateMutability": "nonpayable",
      "type": "function"
    },
    {
      "inputs": [
        {
          "internalType": "address",
          "name": "owner",
          "type": "address"
        }
      ],
      "name": "balanceOf",
      "outputs": [
        {
          "internalType": "uint256",
          "name": "",
          "type": "uint256"
        }
      ],
      "stateMutability": "view",
      "type": "function"
    },
    {
      "inputs": [
        {
          "internalType": "uint256",
          "name": "_tokenId",
          "type": "uint256"
        },
        {
          "internalType": "address payable",
          "name": "_to",
          "type": "address"
        }
      ],
      "name": "buyToken",
      "outputs": [],
      "stateMutability": "payable",
      "type": "function"
    },
    {
      "inputs": [],
      "name": "findAllToken",
      "outputs": [
        {
          "components": [
            {
              "internalType": "uint256",
              "name": "tokenId",
              "type": "uint256"
            },
            {
              "internalType": "address",
              "name": "owner",
              "type": "address"
            },
            {
              "internalType": "bytes32",
              "name": "title",
              "type": "bytes32"
            },
            {
              "internalType": "bytes32",
              "name": "description",
              "type": "bytes32"
            },
            {
              "internalType": "uint256",
              "name": "price",
              "type": "uint256"
            },
            {
              "internalType": "string",
              "name": "image",
              "type": "string"
            }
          ],
          "internalType": "struct Market.Listing[]",
          "name": "",
          "type": "tuple[]"
        }
      ],
      "stateMutability": "view",
      "type": "function"
    },
    {
      "inputs": [],
      "name": "findMyToken",
      "outputs": [
        {
          "internalType": "uint256[]",
          "name": "_myArts",
          "type": "uint256[]"
        }
      ],
      "stateMutability": "view",
      "type": "function"
    },
    {
      "inputs": [
        {
          "internalType": "uint256",
          "name": "_tokenId",
          "type": "uint256"
        }
      ],
      "name": "findToken",
      "outputs": [
        {
          "internalType": "uint256",
          "name": "",
          "type": "uint256"
        },
        {
          "internalType": "bytes32",
          "name": "",
          "type": "bytes32"
        },
        {
          "internalType": "bytes32",
          "name": "",
          "type": "bytes32"
        },
        {
          "internalType": "uint256",
          "name": "",
          "type": "uint256"
        },
        {
          "internalType": "address",
          "name": "",
          "type": "address"
        },
        {
          "internalType": "string",
          "name": "",
          "type": "string"
        }
      ],
      "stateMutability": "view",
      "type": "function"
    },
    {
      "inputs": [
        {
          "internalType": "uint256",
          "name": "tokenId",
          "type": "uint256"
        }
      ],
      "name": "getApproved",
      "outputs": [
        {
          "internalType": "address",
          "name": "",
          "type": "address"
        }
      ],
      "stateMutability": "view",
      "type": "function"
    },
    {
      "inputs": [
        {
          "internalType": "address",
          "name": "owner",
          "type": "address"
        },
        {
          "internalType": "address",
          "name": "operator",
          "type": "address"
        }
      ],
      "name": "isApprovedForAll",
      "outputs": [
        {
          "internalType": "bool",
          "name": "",
          "type": "bool"
        }
      ],
      "stateMutability": "view",
      "type": "function"
    },
    {
      "inputs": [
        {
          "internalType": "uint256",
          "name": "",
          "type": "uint256"
        }
      ],
      "name": "listingsArr",
      "outputs": [
        {
          "internalType": "uint256",
          "name": "tokenId",
          "type": "uint256"
        },
        {
          "internalType": "address",
          "name": "owner",
          "type": "address"
        },
        {
          "internalType": "bytes32",
          "name": "title",
          "type": "bytes32"
        },
        {
          "internalType": "bytes32",
          "name": "description",
          "type": "bytes32"
        },
        {
          "internalType": "uint256",
          "name": "price",
          "type": "uint256"
        },
        {
          "internalType": "string",
          "name": "image",
          "type": "string"
        }
      ],
      "stateMutability": "view",
      "type": "function"
    },
    {
      "inputs": [],
      "name": "name",
      "outputs": [
        {
          "internalType": "string",
          "name": "",
          "type": "string"
        }
      ],
      "stateMutability": "view",
      "type": "function"
    },
    {
      "inputs": [
        {
          "internalType": "uint256",
          "name": "tokenId",
          "type": "uint256"
        }
      ],
      "name": "ownerOf",
      "outputs": [
        {
          "internalType": "address",
          "name": "",
          "type": "address"
        }
      ],
      "stateMutability": "view",
      "type": "function"
    },
    {
      "inputs": [
        {
          "internalType": "address",
          "name": "from",
          "type": "address"
        },
        {
          "internalType": "address",
          "name": "to",
          "type": "address"
        },
        {
          "internalType": "uint256",
          "name": "tokenId",
          "type": "uint256"
        }
      ],
      "name": "safeTransferFrom",
      "outputs": [],
      "stateMutability": "nonpayable",
      "type": "function"
    },
    {
      "inputs": [
        {
          "internalType": "address",
          "name": "from",
          "type": "address"
        },
        {
          "internalType": "address",
          "name": "to",
          "type": "address"
        },
        {
          "internalType": "uint256",
          "name": "tokenId",
          "type": "uint256"
        },
        {
          "internalType": "bytes",
          "name": "_data",
          "type": "bytes"
        }
      ],
      "name": "safeTransferFrom",
      "outputs": [],
      "stateMutability": "nonpayable",
      "type": "function"
    },
    {
      "inputs": [
        {
          "internalType": "address",
          "name": "operator",
          "type": "address"
        },
        {
          "internalType": "bool",
          "name": "approved",
          "type": "bool"
        }
      ],
      "name": "setApprovalForAll",
      "outputs": [],
      "stateMutability": "nonpayable",
      "type": "function"
    },
    {
      "inputs": [
        {
          "internalType": "bytes4",
          "name": "interfaceId",
          "type": "bytes4"
        }
      ],
      "name": "supportsInterface",
      "outputs": [
        {
          "internalType": "bool",
          "name": "",
          "type": "bool"
        }
      ],
      "stateMutability": "view",
      "type": "function"
    },
    {
      "inputs": [],
      "name": "symbol",
      "outputs": [
        {
          "internalType": "string",
          "name": "",
          "type": "string"
        }
      ],
      "stateMutability": "view",
      "type": "function"
    },
    {
      "inputs": [
        {
          "internalType": "uint256",
          "name": "tokenId",
          "type": "uint256"
        }
      ],
      "name": "tokenURI",
      "outputs": [
        {
          "internalType": "string",
          "name": "",
          "type": "string"
        }
      ],
      "stateMutability": "view",
      "type": "function"
    },
    {
      "inputs": [
        {
          "internalType": "address",
          "name": "from",
          "type": "address"
        },
        {
          "internalType": "address",
          "name": "to",
          "type": "address"
        },
        {
          "internalType": "uint256",
          "name": "tokenId",
          "type": "uint256"
        }
      ],
      "name": "transferFrom",
      "outputs": [],
      "stateMutability": "nonpayable",
      "type": "function"
    }
  ],
  "bytecode": "0x608060405260006007553480156200001657600080fd5b5060405162003b8d38038062003b8d83398181016040528101906200003c91906200019c565b81818160009080519060200190620000569291906200007a565b5080600190805190602001906200006f9291906200007a565b50505050506200037f565b8280546200008890620002a4565b90600052602060002090601f016020900481019282620000ac5760008555620000f8565b82601f10620000c757805160ff1916838001178555620000f8565b82800160010185558215620000f8579182015b82811115620000f7578251825591602001919060010190620000da565b5b5090506200010791906200010b565b5090565b5b80821115620001265760008160009055506001016200010c565b5090565b6000620001416200013b8462000238565b6200020f565b9050828152602081018484840111156200015a57600080fd5b620001678482856200026e565b509392505050565b600082601f8301126200018157600080fd5b8151620001938482602086016200012a565b91505092915050565b60008060408385031215620001b057600080fd5b600083015167ffffffffffffffff811115620001cb57600080fd5b620001d9858286016200016f565b925050602083015167ffffffffffffffff811115620001f757600080fd5b62000205858286016200016f565b9150509250929050565b60006200021b6200022e565b9050620002298282620002da565b919050565b6000604051905090565b600067ffffffffffffffff8211156200025657620002556200033f565b5b62000261826200036e565b9050602081019050919050565b60005b838110156200028e57808201518184015260208101905062000271565b838111156200029e576000848401525b50505050565b60006002820490506001821680620002bd57607f821691505b60208210811415620002d457620002d362000310565b5b50919050565b620002e5826200036e565b810181811067ffffffffffffffff821117156200030757620003066200033f565b5b80604052505050565b7f4e487b7100000000000000000000000000000000000000000000000000000000600052602260045260246000fd5b7f4e487b7100000000000000000000000000000000000000000000000000000000600052604160045260246000fd5b6000601f19601f8301169050919050565b6137fe806200038f6000396000f3fe6080604052600436106101145760003560e01c80636352211e116100a0578063a22cb46511610064578063a22cb465146103d2578063a76bb6a2146103fb578063b88d4fde14610426578063c87b56dd1461044f578063e985e9c51461048c57610114565b80636352211e146102e657806370a08231146103235780639134709e14610360578063924fa0471461037c57806395d89b41146103a757610114565b8063202df776116100e7578063202df776146101e757806323b872dd1461021057806342842e0e146102395780634730169b14610262578063574b32d9146102a457610114565b806301ffc9a71461011957806306fdde0314610156578063081812fc14610181578063095ea7b3146101be575b600080fd5b34801561012557600080fd5b50610140600480360381019061013b91906125b5565b6104c9565b60405161014d9190612bf2565b60405180910390f35b34801561016257600080fd5b5061016b6105ab565b6040516101789190612c0d565b60405180910390f35b34801561018d57600080fd5b506101a860048036038101906101a39190612607565b61063d565b6040516101b59190612b47565b60405180910390f35b3480156101ca57600080fd5b506101e560048036038101906101e091906124fe565b6106c2565b005b3480156101f357600080fd5b5061020e6004803603810190610209919061253a565b6107da565b005b34801561021c57600080fd5b50610237600480360381019061023291906123f8565b6109ad565b005b34801561024557600080fd5b50610260600480360381019061025b91906123f8565b610a0d565b005b34801561026e57600080fd5b5061028960048036038101906102849190612607565b610a2d565b60405161029b96959493929190612e72565b60405180910390f35b3480156102b057600080fd5b506102cb60048036038101906102c69190612607565b610b9d565b6040516102dd96959493929190612e0a565b60405180910390f35b3480156102f257600080fd5b5061030d60048036038101906103089190612607565b610c91565b60405161031a9190612b47565b60405180910390f35b34801561032f57600080fd5b5061034a60048036038101906103459190612393565b610d43565b6040516103579190612def565b60405180910390f35b61037a60048036038101906103759190612630565b610dfb565b005b34801561038857600080fd5b50610391610fd8565b60405161039e9190612bd0565b60405180910390f35b3480156103b357600080fd5b506103bc611159565b6040516103c99190612c0d565b60405180910390f35b3480156103de57600080fd5b506103f960048036038101906103f491906124c2565b6111eb565b005b34801561040757600080fd5b50610410611201565b60405161041d9190612bae565b60405180910390f35b34801561043257600080fd5b5061044d60048036038101906104489190612447565b611370565b005b34801561045b57600080fd5b5061047660048036038101906104719190612607565b6113d2565b6040516104839190612c0d565b60405180910390f35b34801561049857600080fd5b506104b360048036038101906104ae91906123bc565b611479565b6040516104c09190612bf2565b60405180910390f35b60007f80ac58cd000000000000000000000000000000000000000000000000000000007bffffffffffffffffffffffffffffffffffffffffffffffffffffffff1916827bffffffffffffffffffffffffffffffffffffffffffffffffffffffff1916148061059457507f5b5e139f000000000000000000000000000000000000000000000000000000007bffffffffffffffffffffffffffffffffffffffffffffffffffffffff1916827bffffffffffffffffffffffffffffffffffffffffffffffffffffffff1916145b806105a457506105a38261150d565b5b9050919050565b6060600080546105ba906131b4565b80601f01602080910402602001604051908101604052809291908181526020018280546105e6906131b4565b80156106335780601f1061060857610100808354040283529160200191610633565b820191906000526020600020905b81548152906001019060200180831161061657829003601f168201915b5050505050905090565b600061064882611577565b610687576040517f08c379a000000000000000000000000000000000000000000000000000000000815260040161067e90612d6f565b60405180910390fd5b6004600083815260200190815260200160002060009054906101000a900473ffffffffffffffffffffffffffffffffffffffff169050919050565b60006106cd82610c91565b90508073ffffffffffffffffffffffffffffffffffffffff168373ffffffffffffffffffffffffffffffffffffffff16141561073e576040517f08c379a000000000000000000000000000000000000000000000000000000000815260040161073590612daf565b60405180910390fd5b8073ffffffffffffffffffffffffffffffffffffffff1661075d6115e3565b73ffffffffffffffffffffffffffffffffffffffff16148061078c575061078b816107866115e3565b611479565b5b6107cb576040517f08c379a00000000000000000000000000000000000000000000000000000000081526004016107c290612cef565b60405180910390fd5b6107d583836115eb565b505050565b60006040518060c0016040528060075481526020013373ffffffffffffffffffffffffffffffffffffffff168152602001868152602001858152602001848152602001838152509050806008600060075481526020019081526020016000206000820151816000015560208201518160010160006101000a81548173ffffffffffffffffffffffffffffffffffffffff021916908373ffffffffffffffffffffffffffffffffffffffff16021790555060408201518160020155606082015181600301556080820151816004015560a08201518160050190805190602001906108c492919061218d565b5090505060068190806001815401808255809150506001900390600052602060002090600602016000909190919091506000820151816000015560208201518160010160006101000a81548173ffffffffffffffffffffffffffffffffffffffff021916908373ffffffffffffffffffffffffffffffffffffffff16021790555060408201518160020155606082015181600301556080820151816004015560a082015181600501908051906020019061097f92919061218d565b50505061098e336007546116a4565b600760008154809291906109a190613217565b91905055505050505050565b6109be6109b86115e3565b826116c2565b6109fd576040517f08c379a00000000000000000000000000000000000000000000000000000000081526004016109f490612dcf565b60405180910390fd5b610a088383836117a0565b505050565b610a2883838360405180602001604052806000815250611370565b505050565b600080600080600060606000600860008981526020019081526020016000206040518060c0016040529081600082015481526020016001820160009054906101000a900473ffffffffffffffffffffffffffffffffffffffff1673ffffffffffffffffffffffffffffffffffffffff1673ffffffffffffffffffffffffffffffffffffffff168152602001600282015481526020016003820154815260200160048201548152602001600582018054610ae5906131b4565b80601f0160208091040260200160405190810160405280929190818152602001828054610b11906131b4565b8015610b5e5780601f10610b3357610100808354040283529160200191610b5e565b820191906000526020600020905b815481529060010190602001808311610b4157829003601f168201915b5050505050815250509050806000015181604001518260600151836080015184602001518560a001519650965096509650965096505091939550919395565b60068181548110610bad57600080fd5b90600052602060002090600602016000915090508060000154908060010160009054906101000a900473ffffffffffffffffffffffffffffffffffffffff1690806002015490806003015490806004015490806005018054610c0e906131b4565b80601f0160208091040260200160405190810160405280929190818152602001828054610c3a906131b4565b8015610c875780601f10610c5c57610100808354040283529160200191610c87565b820191906000526020600020905b815481529060010190602001808311610c6a57829003601f168201915b5050505050905086565b6000806002600084815260200190815260200160002060009054906101000a900473ffffffffffffffffffffffffffffffffffffffff169050600073ffffffffffffffffffffffffffffffffffffffff168173ffffffffffffffffffffffffffffffffffffffff161415610d3a576040517f08c379a0000000000000000000000000000000000000000000000000000000008152600401610d3190612d2f565b60405180910390fd5b80915050919050565b60008073ffffffffffffffffffffffffffffffffffffffff168273ffffffffffffffffffffffffffffffffffffffff161415610db4576040517f08c379a0000000000000000000000000000000000000000000000000000000008152600401610dab90612d0f565b60405180910390fd5b600360008373ffffffffffffffffffffffffffffffffffffffff1673ffffffffffffffffffffffffffffffffffffffff168152602001908152602001600020549050919050565b60006008600084815260200190815260200160002090508060040154341015610e2357600080fd5b8060010160009054906101000a900473ffffffffffffffffffffffffffffffffffffffff1673ffffffffffffffffffffffffffffffffffffffff163373ffffffffffffffffffffffffffffffffffffffff161415610e8057600080fd5b610ebf8160010160009054906101000a900473ffffffffffffffffffffffffffffffffffffffff16338560405180602001604052806000815250611a07565b8173ffffffffffffffffffffffffffffffffffffffff166108fc349081150290604051600060405180830381858888f19350505050158015610f05573d6000803e3d6000fd5b503360068481548110610f41577f4e487b7100000000000000000000000000000000000000000000000000000000600052603260045260246000fd5b906000526020600020906006020160010160006101000a81548173ffffffffffffffffffffffffffffffffffffffff021916908373ffffffffffffffffffffffffffffffffffffffff160217905550338160010160006101000a81548173ffffffffffffffffffffffffffffffffffffffff021916908373ffffffffffffffffffffffffffffffffffffffff160217905550505050565b6060600073ffffffffffffffffffffffffffffffffffffffff163373ffffffffffffffffffffffffffffffffffffffff16141561101457600080fd5b600061101f33610d43565b905060008167ffffffffffffffff811115611063577f4e487b7100000000000000000000000000000000000000000000000000000000600052604160045260246000fd5b6040519080825280602002602001820160405280156110915781602001602082028036833780820191505090505b509050600080600680549050905060005b8181101561114e573373ffffffffffffffffffffffffffffffffffffffff166110ca82610c91565b73ffffffffffffffffffffffffffffffffffffffff16141561113b5780848481518110611120577f4e487b7100000000000000000000000000000000000000000000000000000000600052603260045260246000fd5b602002602001018181525050828061113790613217565b9350505b808061114690613217565b9150506110a2565b508294505050505090565b606060018054611168906131b4565b80601f0160208091040260200160405190810160405280929190818152602001828054611194906131b4565b80156111e15780601f106111b6576101008083540402835291602001916111e1565b820191906000526020600020905b8154815290600101906020018083116111c457829003601f168201915b5050505050905090565b6111fd6111f66115e3565b8383611a63565b5050565b60606006805480602002602001604051908101604052809291908181526020016000905b8282101561136757838290600052602060002090600602016040518060c0016040529081600082015481526020016001820160009054906101000a900473ffffffffffffffffffffffffffffffffffffffff1673ffffffffffffffffffffffffffffffffffffffff1673ffffffffffffffffffffffffffffffffffffffff1681526020016002820154815260200160038201548152602001600482015481526020016005820180546112d6906131b4565b80601f0160208091040260200160405190810160405280929190818152602001828054611302906131b4565b801561134f5780601f106113245761010080835404028352916020019161134f565b820191906000526020600020905b81548152906001019060200180831161133257829003601f168201915b50505050508152505081526020019060010190611225565b50505050905090565b61138161137b6115e3565b836116c2565b6113c0576040517f08c379a00000000000000000000000000000000000000000000000000000000081526004016113b790612dcf565b60405180910390fd5b6113cc84848484611a07565b50505050565b60606113dd82611577565b61141c576040517f08c379a000000000000000000000000000000000000000000000000000000000815260040161141390612d8f565b60405180910390fd5b6000611426611bd0565b905060008151116114465760405180602001604052806000815250611471565b8061145084611be7565b604051602001611461929190612b23565b6040516020818303038152906040525b915050919050565b6000600560008473ffffffffffffffffffffffffffffffffffffffff1673ffffffffffffffffffffffffffffffffffffffff16815260200190815260200160002060008373ffffffffffffffffffffffffffffffffffffffff1673ffffffffffffffffffffffffffffffffffffffff16815260200190815260200160002060009054906101000a900460ff16905092915050565b60007f01ffc9a7000000000000000000000000000000000000000000000000000000007bffffffffffffffffffffffffffffffffffffffffffffffffffffffff1916827bffffffffffffffffffffffffffffffffffffffffffffffffffffffff1916149050919050565b60008073ffffffffffffffffffffffffffffffffffffffff166002600084815260200190815260200160002060009054906101000a900473ffffffffffffffffffffffffffffffffffffffff1673ffffffffffffffffffffffffffffffffffffffff1614159050919050565b600033905090565b816004600083815260200190815260200160002060006101000a81548173ffffffffffffffffffffffffffffffffffffffff021916908373ffffffffffffffffffffffffffffffffffffffff160217905550808273ffffffffffffffffffffffffffffffffffffffff1661165e83610c91565b73ffffffffffffffffffffffffffffffffffffffff167f8c5be1e5ebec7d5bd14f71427d1e84f3dd0314c0f7b2291e5b200ac8c7c3b92560405160405180910390a45050565b6116be828260405180602001604052806000815250611d94565b5050565b60006116cd82611577565b61170c576040517f08c379a000000000000000000000000000000000000000000000000000000000815260040161170390612ccf565b60405180910390fd5b600061171783610c91565b90508073ffffffffffffffffffffffffffffffffffffffff168473ffffffffffffffffffffffffffffffffffffffff16148061178657508373ffffffffffffffffffffffffffffffffffffffff1661176e8461063d565b73ffffffffffffffffffffffffffffffffffffffff16145b8061179757506117968185611479565b5b91505092915050565b8273ffffffffffffffffffffffffffffffffffffffff166117c082610c91565b73ffffffffffffffffffffffffffffffffffffffff1614611816576040517f08c379a000000000000000000000000000000000000000000000000000000000815260040161180d90612c4f565b60405180910390fd5b600073ffffffffffffffffffffffffffffffffffffffff168273ffffffffffffffffffffffffffffffffffffffff161415611886576040517f08c379a000000000000000000000000000000000000000000000000000000000815260040161187d90612c8f565b60405180910390fd5b611891838383611def565b61189c6000826115eb565b6001600360008573ffffffffffffffffffffffffffffffffffffffff1673ffffffffffffffffffffffffffffffffffffffff16815260200190815260200160002060008282546118ec91906130ae565b925050819055506001600360008473ffffffffffffffffffffffffffffffffffffffff1673ffffffffffffffffffffffffffffffffffffffff16815260200190815260200160002060008282546119439190613027565b92505081905550816002600083815260200190815260200160002060006101000a81548173ffffffffffffffffffffffffffffffffffffffff021916908373ffffffffffffffffffffffffffffffffffffffff160217905550808273ffffffffffffffffffffffffffffffffffffffff168473ffffffffffffffffffffffffffffffffffffffff167fddf252ad1be2c89b69c2b068fc378daa952ba7f163c4a11628f55a4df523b3ef60405160405180910390a4611a02838383611df4565b505050565b611a128484846117a0565b611a1e84848484611df9565b611a5d576040517f08c379a0000000000000000000000000000000000000000000000000000000008152600401611a5490612c2f565b60405180910390fd5b50505050565b8173ffffffffffffffffffffffffffffffffffffffff168373ffffffffffffffffffffffffffffffffffffffff161415611ad2576040517f08c379a0000000000000000000000000000000000000000000000000000000008152600401611ac990612caf565b60405180910390fd5b80600560008573ffffffffffffffffffffffffffffffffffffffff1673ffffffffffffffffffffffffffffffffffffffff16815260200190815260200160002060008473ffffffffffffffffffffffffffffffffffffffff1673ffffffffffffffffffffffffffffffffffffffff16815260200190815260200160002060006101000a81548160ff0219169083151502179055508173ffffffffffffffffffffffffffffffffffffffff168373ffffffffffffffffffffffffffffffffffffffff167f17307eab39ab6107e8899845ad3d59bd9653f200f220920489ca2b5937696c3183604051611bc39190612bf2565b60405180910390a3505050565b606060405180602001604052806000815250905090565b60606000821415611c2f576040518060400160405280600181526020017f30000000000000000000000000000000000000000000000000000000000000008152509050611d8f565b600082905060005b60008214611c61578080611c4a90613217565b915050600a82611c5a919061307d565b9150611c37565b60008167ffffffffffffffff811115611ca3577f4e487b7100000000000000000000000000000000000000000000000000000000600052604160045260246000fd5b6040519080825280601f01601f191660200182016040528015611cd55781602001600182028036833780820191505090505b5090505b60008514611d8857600182611cee91906130ae565b9150600a85611cfd9190613260565b6030611d099190613027565b60f81b818381518110611d45577f4e487b7100000000000000000000000000000000000000000000000000000000600052603260045260246000fd5b60200101907effffffffffffffffffffffffffffffffffffffffffffffffffffffffffffff1916908160001a905350600a85611d81919061307d565b9450611cd9565b8093505050505b919050565b611d9e8383611f90565b611dab6000848484611df9565b611dea576040517f08c379a0000000000000000000000000000000000000000000000000000000008152600401611de190612c2f565b60405180910390fd5b505050565b505050565b505050565b6000611e1a8473ffffffffffffffffffffffffffffffffffffffff1661216a565b15611f83578373ffffffffffffffffffffffffffffffffffffffff1663150b7a02611e436115e3565b8786866040518563ffffffff1660e01b8152600401611e659493929190612b62565b602060405180830381600087803b158015611e7f57600080fd5b505af1925050508015611eb057506040513d601f19601f82011682018060405250810190611ead91906125de565b60015b611f33573d8060008114611ee0576040519150601f19603f3d011682016040523d82523d6000602084013e611ee5565b606091505b50600081511415611f2b576040517f08c379a0000000000000000000000000000000000000000000000000000000008152600401611f2290612c2f565b60405180910390fd5b805181602001fd5b63150b7a0260e01b7bffffffffffffffffffffffffffffffffffffffffffffffffffffffff1916817bffffffffffffffffffffffffffffffffffffffffffffffffffffffff191614915050611f88565b600190505b949350505050565b600073ffffffffffffffffffffffffffffffffffffffff168273ffffffffffffffffffffffffffffffffffffffff161415612000576040517f08c379a0000000000000000000000000000000000000000000000000000000008152600401611ff790612d4f565b60405180910390fd5b61200981611577565b15612049576040517f08c379a000000000000000000000000000000000000000000000000000000000815260040161204090612c6f565b60405180910390fd5b61205560008383611def565b6001600360008473ffffffffffffffffffffffffffffffffffffffff1673ffffffffffffffffffffffffffffffffffffffff16815260200190815260200160002060008282546120a59190613027565b92505081905550816002600083815260200190815260200160002060006101000a81548173ffffffffffffffffffffffffffffffffffffffff021916908373ffffffffffffffffffffffffffffffffffffffff160217905550808273ffffffffffffffffffffffffffffffffffffffff16600073ffffffffffffffffffffffffffffffffffffffff167fddf252ad1be2c89b69c2b068fc378daa952ba7f163c4a11628f55a4df523b3ef60405160405180910390a461216660008383611df4565b5050565b6000808273ffffffffffffffffffffffffffffffffffffffff163b119050919050565b828054612199906131b4565b90600052602060002090601f0160209004810192826121bb5760008555612202565b82601f106121d457805160ff1916838001178555612202565b82800160010185558215612202579182015b828111156122015782518255916020019190600101906121e6565b5b50905061220f9190612213565b5090565b5b8082111561222c576000816000905550600101612214565b5090565b600061224361223e84612eff565b612eda565b90508281526020810184848401111561225b57600080fd5b612266848285613172565b509392505050565b600061228161227c84612f30565b612eda565b90508281526020810184848401111561229957600080fd5b6122a4848285613172565b509392505050565b6000813590506122bb8161373e565b92915050565b6000813590506122d081613755565b92915050565b6000813590506122e58161376c565b92915050565b6000813590506122fa81613783565b92915050565b60008135905061230f8161379a565b92915050565b6000815190506123248161379a565b92915050565b600082601f83011261233b57600080fd5b813561234b848260208601612230565b91505092915050565b600082601f83011261236557600080fd5b813561237584826020860161226e565b91505092915050565b60008135905061238d816137b1565b92915050565b6000602082840312156123a557600080fd5b60006123b3848285016122ac565b91505092915050565b600080604083850312156123cf57600080fd5b60006123dd858286016122ac565b92505060206123ee858286016122ac565b9150509250929050565b60008060006060848603121561240d57600080fd5b600061241b868287016122ac565b935050602061242c868287016122ac565b925050604061243d8682870161237e565b9150509250925092565b6000806000806080858703121561245d57600080fd5b600061246b878288016122ac565b945050602061247c878288016122ac565b935050604061248d8782880161237e565b925050606085013567ffffffffffffffff8111156124aa57600080fd5b6124b68782880161232a565b91505092959194509250565b600080604083850312156124d557600080fd5b60006124e3858286016122ac565b92505060206124f4858286016122d6565b9150509250929050565b6000806040838503121561251157600080fd5b600061251f858286016122ac565b92505060206125308582860161237e565b9150509250929050565b6000806000806080858703121561255057600080fd5b600061255e878288016122eb565b945050602061256f878288016122eb565b93505060406125808782880161237e565b925050606085013567ffffffffffffffff81111561259d57600080fd5b6125a987828801612354565b91505092959194509250565b6000602082840312156125c757600080fd5b60006125d584828501612300565b91505092915050565b6000602082840312156125f057600080fd5b60006125fe84828501612315565b91505092915050565b60006020828403121561261957600080fd5b60006126278482850161237e565b91505092915050565b6000806040838503121561264357600080fd5b60006126518582860161237e565b9250506020612662858286016122c1565b9150509250929050565b60006126788383612a7c565b905092915050565b600061268c8383612b05565b60208301905092915050565b6126a1816130e2565b82525050565b6126b0816130e2565b82525050565b60006126c182612f81565b6126cb8185612fc7565b9350836020820285016126dd85612f61565b8060005b8581101561271957848403895281516126fa858261266c565b945061270583612fad565b925060208a019950506001810190506126e1565b50829750879550505050505092915050565b600061273682612f8c565b6127408185612fd8565b935061274b83612f71565b8060005b8381101561277c5781516127638882612680565b975061276e83612fba565b92505060018101905061274f565b5085935050505092915050565b61279281613106565b82525050565b6127a181613112565b82525050565b6127b081613112565b82525050565b60006127c182612f97565b6127cb8185612fe9565b93506127db818560208601613181565b6127e48161334d565b840191505092915050565b60006127fa82612fa2565b6128048185612ffa565b9350612814818560208601613181565b61281d8161334d565b840191505092915050565b600061283382612fa2565b61283d818561300b565b935061284d818560208601613181565b6128568161334d565b840191505092915050565b600061286c82612fa2565b612876818561301c565b9350612886818560208601613181565b80840191505092915050565b600061289f60328361300b565b91506128aa8261335e565b604082019050919050565b60006128c260258361300b565b91506128cd826133ad565b604082019050919050565b60006128e5601c8361300b565b91506128f0826133fc565b602082019050919050565b600061290860248361300b565b915061291382613425565b604082019050919050565b600061292b60198361300b565b915061293682613474565b602082019050919050565b600061294e602c8361300b565b91506129598261349d565b604082019050919050565b600061297160388361300b565b915061297c826134ec565b604082019050919050565b6000612994602a8361300b565b915061299f8261353b565b604082019050919050565b60006129b760298361300b565b91506129c28261358a565b604082019050919050565b60006129da60208361300b565b91506129e5826135d9565b602082019050919050565b60006129fd602c8361300b565b9150612a0882613602565b604082019050919050565b6000612a20602f8361300b565b9150612a2b82613651565b604082019050919050565b6000612a4360218361300b565b9150612a4e826136a0565b604082019050919050565b6000612a6660318361300b565b9150612a71826136ef565b604082019050919050565b600060c083016000830151612a946000860182612b05565b506020830151612aa76020860182612698565b506040830151612aba6040860182612798565b506060830151612acd6060860182612798565b506080830151612ae06080860182612b05565b5060a083015184820360a0860152612af882826127ef565b9150508091505092915050565b612b0e81613168565b82525050565b612b1d81613168565b82525050565b6000612b2f8285612861565b9150612b3b8284612861565b91508190509392505050565b6000602082019050612b5c60008301846126a7565b92915050565b6000608082019050612b7760008301876126a7565b612b8460208301866126a7565b612b916040830185612b14565b8181036060830152612ba381846127b6565b905095945050505050565b60006020820190508181036000830152612bc881846126b6565b905092915050565b60006020820190508181036000830152612bea818461272b565b905092915050565b6000602082019050612c076000830184612789565b92915050565b60006020820190508181036000830152612c278184612828565b905092915050565b60006020820190508181036000830152612c4881612892565b9050919050565b60006020820190508181036000830152612c68816128b5565b9050919050565b60006020820190508181036000830152612c88816128d8565b9050919050565b60006020820190508181036000830152612ca8816128fb565b9050919050565b60006020820190508181036000830152612cc88161291e565b9050919050565b60006020820190508181036000830152612ce881612941565b9050919050565b60006020820190508181036000830152612d0881612964565b9050919050565b60006020820190508181036000830152612d2881612987565b9050919050565b60006020820190508181036000830152612d48816129aa565b9050919050565b60006020820190508181036000830152612d68816129cd565b9050919050565b60006020820190508181036000830152612d88816129f0565b9050919050565b60006020820190508181036000830152612da881612a13565b9050919050565b60006020820190508181036000830152612dc881612a36565b9050919050565b60006020820190508181036000830152612de881612a59565b9050919050565b6000602082019050612e046000830184612b14565b92915050565b600060c082019050612e1f6000830189612b14565b612e2c60208301886126a7565b612e3960408301876127a7565b612e4660608301866127a7565b612e536080830185612b14565b81810360a0830152612e658184612828565b9050979650505050505050565b600060c082019050612e876000830189612b14565b612e9460208301886127a7565b612ea160408301876127a7565b612eae6060830186612b14565b612ebb60808301856126a7565b81810360a0830152612ecd8184612828565b9050979650505050505050565b6000612ee4612ef5565b9050612ef082826131e6565b919050565b6000604051905090565b600067ffffffffffffffff821115612f1a57612f1961331e565b5b612f238261334d565b9050602081019050919050565b600067ffffffffffffffff821115612f4b57612f4a61331e565b5b612f548261334d565b9050602081019050919050565b6000819050602082019050919050565b6000819050602082019050919050565b600081519050919050565b600081519050919050565b600081519050919050565b600081519050919050565b6000602082019050919050565b6000602082019050919050565b600082825260208201905092915050565b600082825260208201905092915050565b600082825260208201905092915050565b600082825260208201905092915050565b600082825260208201905092915050565b600081905092915050565b600061303282613168565b915061303d83613168565b9250827fffffffffffffffffffffffffffffffffffffffffffffffffffffffffffffffff0382111561307257613071613291565b5b828201905092915050565b600061308882613168565b915061309383613168565b9250826130a3576130a26132c0565b5b828204905092915050565b60006130b982613168565b91506130c483613168565b9250828210156130d7576130d6613291565b5b828203905092915050565b60006130ed82613148565b9050919050565b60006130ff82613148565b9050919050565b60008115159050919050565b6000819050919050565b60007fffffffff0000000000000000000000000000000000000000000000000000000082169050919050565b600073ffffffffffffffffffffffffffffffffffffffff82169050919050565b6000819050919050565b82818337600083830152505050565b60005b8381101561319f578082015181840152602081019050613184565b838111156131ae576000848401525b50505050565b600060028204905060018216806131cc57607f821691505b602082108114156131e0576131df6132ef565b5b50919050565b6131ef8261334d565b810181811067ffffffffffffffff8211171561320e5761320d61331e565b5b80604052505050565b600061322282613168565b91507fffffffffffffffffffffffffffffffffffffffffffffffffffffffffffffffff82141561325557613254613291565b5b600182019050919050565b600061326b82613168565b915061327683613168565b925082613286576132856132c0565b5b828206905092915050565b7f4e487b7100000000000000000000000000000000000000000000000000000000600052601160045260246000fd5b7f4e487b7100000000000000000000000000000000000000000000000000000000600052601260045260246000fd5b7f4e487b7100000000000000000000000000000000000000000000000000000000600052602260045260246000fd5b7f4e487b7100000000000000000000000000000000000000000000000000000000600052604160045260246000fd5b6000601f19601f8301169050919050565b7f4552433732313a207472616e7366657220746f206e6f6e20455243373231526560008201527f63656976657220696d706c656d656e7465720000000000000000000000000000602082015250565b7f4552433732313a207472616e736665722066726f6d20696e636f72726563742060008201527f6f776e6572000000000000000000000000000000000000000000000000000000602082015250565b7f4552433732313a20746f6b656e20616c7265616479206d696e74656400000000600082015250565b7f4552433732313a207472616e7366657220746f20746865207a65726f2061646460008201527f7265737300000000000000000000000000000000000000000000000000000000602082015250565b7f4552433732313a20617070726f766520746f2063616c6c657200000000000000600082015250565b7f4552433732313a206f70657261746f7220717565727920666f72206e6f6e657860008201527f697374656e7420746f6b656e0000000000000000000000000000000000000000602082015250565b7f4552433732313a20617070726f76652063616c6c6572206973206e6f74206f7760008201527f6e6572206e6f7220617070726f76656420666f7220616c6c0000000000000000602082015250565b7f4552433732313a2062616c616e636520717565727920666f7220746865207a6560008201527f726f206164647265737300000000000000000000000000000000000000000000602082015250565b7f4552433732313a206f776e657220717565727920666f72206e6f6e657869737460008201527f656e7420746f6b656e0000000000000000000000000000000000000000000000602082015250565b7f4552433732313a206d696e7420746f20746865207a65726f2061646472657373600082015250565b7f4552433732313a20617070726f76656420717565727920666f72206e6f6e657860008201527f697374656e7420746f6b656e0000000000000000000000000000000000000000602082015250565b7f4552433732314d657461646174613a2055524920717565727920666f72206e6f60008201527f6e6578697374656e7420746f6b656e0000000000000000000000000000000000602082015250565b7f4552433732313a20617070726f76616c20746f2063757272656e74206f776e6560008201527f7200000000000000000000000000000000000000000000000000000000000000602082015250565b7f4552433732313a207472616e736665722063616c6c6572206973206e6f74206f60008201527f776e6572206e6f7220617070726f766564000000000000000000000000000000602082015250565b613747816130e2565b811461375257600080fd5b50565b61375e816130f4565b811461376957600080fd5b50565b61377581613106565b811461378057600080fd5b50565b61378c81613112565b811461379757600080fd5b50565b6137a38161311c565b81146137ae57600080fd5b50565b6137ba81613168565b81146137c557600080fd5b5056fea2646970667358221220c49f1c688afb3f29ca179dc18530d6f1939ac0adf71256c2a18f69a8fb09601664736f6c63430008040033",
  "linkReferences": {},
  "deployedLinkReferences": {}
}